S013000041565250526F6A656374732E73726563FE
S113000045C000004BC0000049C0000047C00000CC
S113001045C0000043C0000041C000003FC00000D4
S11300203DC000003BC0000039C0000037C00000E4
S113003035C0000033C0000031C000002FC00000F4
S11300402DC000002BC0000029C0000027C0000004
S113005025C0000023C0000021C000001FC0000014
S11300601DC000001BC0000019C0000017C0000024
S113007015C0000013C0000011C000000FC0000034
S11300800DC000000BC0000009C0000011241FBEF9
S1130090CFEFD0E1DEBFCDBF22D029C0B1CF18163B
S11300A019066CF420E030E0EFECF7E03197F1F75B
S11300B000C000002F5F3F4F28173907A9F70895A4
S11300C0CF93DF93EC0182E082BBCE01E8DF84E0D2
S11300D082BBCE01E4DFDF91CF9108950895FEDF66
S11300E08FEF81BB14BA84EF91E0EADFFCCFF89480
S10500F0FFCF3C
S9030000FC
