S013000041565250526F6A656374732E73726563FE
S113000045C0000058C0000056C0000054C00000A5
S113001052C0000050C000004EC000004CC00000A0
S11300204AC0000048C0000046C0000044C00000B0
S113003042C0000040C000003EC000003CC00000C0
S11300403AC0000038C0000036C0000034C00000D0
S113005032C0000030C000002EC000002CC00000E0
S11300602AC0000028C0000026C0000024C00000F0
S113007022C0000020C000001EC000001CC0000000
S11300801AC0000018C0000016C0000011241FBED2
S1130090CFEFD0E1DEBFCDBF11E0A0E0B1E0EEE3F1
S11300A0F4E000E00BBF02C007900D92A636B10742
S11300B0D9F7C0D1C2C1A4CF181619066CF420E038
S11300C030E0EFECF7E03197F1F700C000002F5F6C
S11300D03F4F28173907A9F7089512BA80E882BB61
S11300E084EF91E0E9DF80E482BB84EF91E0E4CF28
S11300F00895EF92FF920F931F93CF93DF9312BA59
S1130100161617066CF48B017C01C0E0D0E092B3A4
S1130110905892BBC701D0DF2196C017D107B9F719
S1130120DF91CF911F910F91FF90EF90089512BA34
S1130130989B08C082B3805882BB84EF91E0BCDFF7
S11301409899F8CF08950F931F93CF93DF93C0E04E
S1130150D0E001E010E0C8010C2E02C0880F991F06
S11301600A94E2F782BB82E390E0A6DF2196C830CE
S1130170D10589F7C7E0D0E001E010E0C8010C2EFA
S113018002C0880F991F0A94E2F782BB82E390E0D1
S113019093DF219799F7DF91CF911F910F910895E4
S11301A00F931F93CF93DF9300D000D000D0CDB72F
S11301B0DEB78C0186E0E0E0F1E0DE01119601900B
S11301C00D928A95E1F7989B07C00F5F1F4F04308B
S11301D0110514F000E010E0F801EE0FFF1FEC0F22
S11301E0FD1F63E070E08181928183DFC801269660
S11301F00FB6F894DEBF0FBECDBFDF91CF911F9134
S11302000F9108958F929F92AF92BF92CF92DF92F7
S1130210EF92FF920F931F93CF93DF93CDB7DEB787
S1130220C056D1090FB6F894DEBF0FBECDBF80E231
S1130230E6E0F1E0DE01119601900D928A95E1F776
S113024080E2E6E2F1E0DE01919601900D928A955A
S1130250E1F780E2E6E4F1E0DE01AF5BBF4F01903D
S11302600D928A95E1F78E010F5F1F4F7E0181E2A7
S1130270E80EF11C6E0191E4C90ED11C47010F2E4A
S1130280F2E6AF2EB12CF02DF80180810E5F1F4FE6
S113029082BBF7018081F2E0EF0EF11C88BBF6010E
S11302A08081F2E0CF0ED11CF501808382E390E0DF
S11302B003DF0815190541F7C05ADF4F0FB6F8944C
S11302C0DEBF0FBECDBFDF91CF911F910F91FF9085
S11302D0EF90DF90CF90BF90AF909F908F90089554
S11302E08230910581F02CF4009749F0019749F090
S11302F008958330910549F0049749F008956BBB44
S1130300089568BB089562BB089563B90895609326
S113031062000895CF92DF92EF92FF920F931F93A2
S1130320CF93DF93C0E0D0E0EE24E394F12CCE0130
S113033087709078992324F40197886F9F6F0196B2
S11303409C01670102C0CC0CDD1C8A95E2F78E018A
S1130350DD2314F4095F1F4F15950795159507952F
S113036015950795232B29F460E070E0C8010197E7
S1130370B7DFB601C801B4DF82E390E09DDE60E040
S113038070E0C801ADDF2196C832D10581F6C8E21C
S1130390D0E0EE24E394F12CCE0187709078992379
S11303A024F40197886F9F6F01969C01670102C036
S11303B0CC0CDD1C8A95E2F78E01DD2314F4095F71
S11303C01F4F159507951595079515950795232B9B
S11303D029F460E070E0C801019782DFB601C8012A
S11303E07FDF82E390E068DE60E070E0C80178DFE0
S11303F02197C130D10581F6DF91CF911F910F91E3
S1130400FF90EF90DF90CF9008958FEF8ABB87BB6A
S113041090E894BB81BB82B980936100C0E0D0E0D6
S11304205CDE85DE90DECE01BBDEEC01EBDE72DF4E
S1110430F7CF0895FEDFE9DFFECFF894FFCF8B
S113043EE803F401FA000100030007000F001F0097
S113044E3F007F00FF007F003F001F000F000700EA
S113045E0300010000000100030007000F001F004D
S113046E3F007F00FF00FE00FC00F800F000E000FB
S113047EC0008000000018003C007E00FF00E70072
S113048EC300810000008100C300E700FF007E006E
S109049E3C001800000000
S9030000FC
