S013000041565250526F6A656374732E73726563FE
S113000045C000007FC000008CC000005CC0000040
S11300105AC0000058C0000056C0000054C0000080
S113002052C0000050C000004EC000004CC0000090
S11300304AC0000048C0000046C0000044C00000A0
S113004042C0000040C000003EC000003CC00000B0
S11300503AC0000038C0000036C0000034C00000C0
S113006032C0000030C000002EC000002CC00000D0
S11300702AC0000028C0000026C0000024C00000E0
S113008022C0000020C000001EC0000011241FBEBA
S1130090CFEFD0E1DEBFCDBF11E0A0E0B1E0E8ECEE
S11300A0F1E000E00BBF02C007900D92A030B10751
S11300B0D9F721E0A0E0B1E001C01D92A230B2075F
S11300C0E1F77DD07FC09CCF181619066CF420E0B0
S11300D030E0EFECF7E03197F1F700C000002F5F5C
S11300E03F4F28173907A9F708958FEF81BB84BBC9
S11300F0EAE6F0E080818A60808389B7836089BF03
S1130100789408951F920F920FB60F9211248F9333
S113011012BA82E082BB8F910F900FBE0F901F9096
S113012018951F920F920FB60F9211240BB60F92CF
S11301302F933F934F935F936F937F938F939F93EB
S1130140AF93BF93EF93FF938091000190910101CE
S1130150089724F0109201011092000181E090E0D0
S11301600090000102C0880F991F0A94E2F785BB32
S11301708091000190910101019690930101809377
S1130180000184EF91E0A0DF12BA81E082BBFF910D
S1130190EF91BF91AF919F918F917F916F915F91FB
S11301A04F913F912F910F900BBE0F900FBE0F9068
S11301B01F9018958FEF81BB98DFFFCF0895FEDF66
S10B01C0F9DFFECFF894FFCF34
S9030000FC
